:1000000000000320D10100007D41000035410000C7
:100010003541000035410000354100003541000008
:100020003541000035410000354100007D410000B0
:100030007D41000035410000495600004D5600004A
:100040007D4100007D4100007D4100007D410000B8
:100050007D4100007D4100007D4100007D410000A8
:100060007D4100007D4100007D4100007D41000098
:100070007D4100007D4100007D4100007D41000088
:100080007D4100007D4100007D4100007D41000078
:100090007D4100007D4100007D4100007D41000068
:1000A0007D380000893800007D4100007D4100005E
:1000B0007D4100007D4100007D4100007D41000048
:1000C0007D4100007D4100007D4100007D41000038
:1000D0007D4100007D4100007D4100007D41000028
:1000E0007D4100007D4100007D4100007D41000018
:1000F0007D4100007D4100007D4100007D41000008
:100100007D4100007D4100007D4100007D410000F7
:100110007D410000094700007D4100007D41000055
:100120007D4100007D4100007D4100007D410000D7
:100130007D4100007D4100007D4100007D410000C7
:100140007D4100007D4100007D4100007D410000B7
:100150007D4100007D4100007D4100007D410000A7
:100160007D4100007D410000953800007D41000088
:100170007D4100007D4100007D4100007D41000087
:100180007D4100007D4100007D4100007D41000077
:100190007D4100007D4100007D4100007D41000067
:1001A0007D4100007D4100007D4100007D41000057
:1001B0007D4100007D4100007D4100007D41000047
:1001C0007D4100007D4100007D4100007D41000037
:1001D0005C4B4CF2205210B51A804DF628121A8052
:1001E00000BF00BF03F0CEFF574B4FF030621A60E4
:1001F000564A9A60564ADA60564B4FF470021A60BB
:10020000554B564A1A60564B1A78110703D51A787F
:1002100042F008021A70534B5349AA221A70534AEB
:10022000534B8B4204D252F8040F43F8040BF8E707
:10023000504B514900228B4202D243F8042BFAE77B
:100240004E494F4A002352F8230041F8230001335E
:10025000742BF8D14B4B4C4A802103F8011B93427D
:10026000FBD14A4B454A1A60494B8A221A70A3F5C2
:10027000805324225A70A0221A709A799207FCD5D2
:100280009A79D406FCD4434A937903F00C03082BE3
:10029000FAD1414B60221A7002331A78802AFCD1BD
:1002A0003C4B01221A715D225A719A799006FCD555
:1002B0009979384A4906FBD5384B394919600021EC
:1002C000596020231370937903F00C030C2BFAD19F
:1002D000344B354A1A60354A354C136813F4807331
:1002E00003D123604FF4A8531360324B324A1A6093
:1002F00000225A60072243F8042C304AC3F80C2D20
:1003000062B604F071F82368DA0705D52C4803F0CB
:10031000EDFF2C4B2C4A1A602C4B1B785B0609D541
:10032000284C294B22689A4204D1254803F0DEFF6D
:100330000023236007F0ECFB03F02AFF05F01CFA12
:10034000FEE700BF0E20054030800440823F0400DD
:100350000100002B88ED00E0002008E0030000858C
:1003600002D0074000E007407C11FF1F2C950000E1
:100370003007FF1F7C11FF1F6C14FF1F0002FF1FBF
:100380000000000000E400E064E400E008ED00E0AC
:10039000005006400040064001E007404480044011
:1003A0000000060204800440C010070010D0034083
:1003B00014D0034014E000E01FBF02000000202022
:1003C000E8B109601CE00340A5C3945A00F007405F
:1003D000FFFFFFFFFFFFFFFFFFFFFFFFFFFFFFFF2D
:1003E000FFFFFFFFFFFFFFFFFFFFFFFFFFFFFFFF1D
:1003F000FFFFFFFFFFFFFFFFFFFFFFFFFFFFFFFF0D
:10040000FFFFFFFFFFFFFFFFFFFFFFFFDEF9FFFF23
:1004100010B5054C237833B9044B13B10448AFF33E
:1004200000800123237010BD7C11FF1F000000001D
:1004300028950000084B10B51BB108490848AFF3D8
:1004400000800848036803B910BD074B002BFBD0A0
:10045000BDE81040184700BF000000008011FF1FDA
:10046000289500007C11FF1F00000000704700BFAE
:10047000704700BF10B50446406808B107F078FB2C
:10048000204610BDC0B2054B012953F8303016BFCD
:10049000012283F8801083F800217047AC9000009F
:1004A00038B50121022003F047FF0121032003F0AA
:1004B00043FF0121042003F03FFF0121052003F049
:1004C0003BFF0021272003F037FF0021262003F007
:1004D00033FF0C210E4803F08FFA20B913210D4889
:1004E00004F08CFFFEE7012109480B4C03F01EFAD3
:1004F0000A480B490B4A2378002BFCD00378DB0712
:10050000F9D50B6815685B1B0E2BF4D938BD00BFFD
:10051000D412FF1F308F0000D413FF1FEC13FF1FF6
:10052000F012FF1F6414FF1F2DE9F04323A3D3E94A
:10053000002385B0044651EC100B06F0CBFF41ECD4
:10054000100B05F019FA57EC106B10EE102A10EE94
:10055000100A3B46394606F00BFE02460B460020C9
:100560004FF0804106F002FE02460B468046894667
:100570000020114907F0D8F807F06EFA002205466E
:100580004FF040433046394606F0A4FF42464B4602
:1005900007F0CAF807F060FA2246002302F8043B8D
:1005A00020629360606120465360A561E5616360ED
:1005B000256105B0BDE8F0830000F03F0000006059
:1005C000FB21094070B5033121F0030486B00646D3
:1005D000204607F0C5FAB0B1011900238DF8143098
:1005E000019002900391049101AD0FCD341D0FC411
:1005F0002B68236096F82030304623F07F0386F87E
:10060000203006B070BD0146E7E700BFFFFFFFFFE7
:100610002DE9F04F2DED028BA7A3D3E9002399B06C
:100620000446894651EC100B06F054FF00229E4B05
:1006300006F050FF41EC100B05F0FEF9002053ECE2
:10064000102B9A4907F070F8302282468B462046DC
:10065000002107F0B1FD52465B4650465946B9F1BC
:10066000000F00F09D8006F035FF4FF000528046ED
:1006700089468F4B5046594606F02CFFCDE90001C4
:1006800002460B464046494606F070FD0022874B65
:1006900006F06EFD06460F4602460B4600208349D3
:1006A00007F042F807F0D8F932463B46054620608D
:1006B0004FF08041002007F037F807F0CDF9B7EE92
:1006C000008A6060A56042464B4684ED038A0020A4
:1006D000764906F04BFD02460B4606F049FD3246D0
:1006E0003B4607F021F807F0B7F9DDE90023206168
:1006F0004946404606F03CFD00226C4B06F038FDB2
:1007000032463B4607F010F807F0A6F90022606178
:10071000664B5046594606F02BFD002502460B4617
:100720008046894600206149149506F0FDFF07F0D8
:1007300093F906AE0027054652465B46B760002097
:100740005A4906F013FD42464B4606F0EDFF07F00E
:1007500083F91295139512AB864693E807000CAB0C
:100760008DED068ACDF81CE083E8070096E80700C7
:100770000FAE86E807000C950D95CDF840E08DEDA5
:100780000F8A1E460FCE04F118050FC596E8030028
:1007900085E80300204619B0BDEC028BBDE8F08F60
:1007A00006F098FE434B06460F4693E8070012AD4D
:1007B00085E807003E4B4FF000525046594606F080
:1007C00089FECDE9000195E807000DF1180888E8D9
:1007D0000700DDE900233046394606F0C7FC002259
:1007E000324B06F0C5FC07F037F932463B4609901C
:1007F0002E49002006F0BAFC02460B4606F0B8FC73
:1008000007F02AF9DDE900230A903946304606F060
:10081000AFFC0022254B06F0ABFC07F01DF90B9056
:10082000B8E80F0026460FC698E80300002286E8C5
:1008300003001E4BCDF8389050465946CDF8149021
:1008400006F096FC07F008F9524606465B46002083
:10085000164906F08BFC07F0FFF84FF07E530C931F
:100860000D930DF13008864698E80700039603AF14
:10087000CDF810E085E8070097E8070018AF07E912
:100880000700159612931393CDF858E00FCD04F19D
:1008900018060FC695E8030086E80300204619B045
:1008A000BDEC028BBDE8F08F0000E03F0000F03FA0
:1008B0000000F0BF248F000000000060FB21094011
:1008C0002DE9F04196B080460AA8FFF7A1FE404608
:1008D0004822002107F070FC10AE08F1240E0DF143
:1008E000700C002756ED026A56ED037A56ED054A64
:1008F00016ED017A16ED045A16ED066A0497F1EE2C
:10090000666AC6EEA75A01970297039701ADAEF14A
:1009100024041836B4450EF1240EC4EEA76AB1EED5
:10092000477ACDED085ACDED066AC5EE275AC7EED7
:10093000276A86EE277ACDED096ACDED075A8DED4F
:10094000057A0FCD0FC40FCD0FC42B682360C9D11A
:10095000404616B0BDE8F0812DE9F04F427E85B0EB
:1009600004460E461D46002722B3007E20282FD8BD
:10097000DFE800F0142E2E2E2E2E2E2E2E1F1F2ED0
:100980002E1F2E2E2E2E2E2E2E2E2E2E2E2E2E2E96
:100990002E2E2E2E1F00012320766376237C002B23
:1009A0000CBF0123022384F86030002005B0BDE8AD
:1009B000F08F6776012202A9606904F06FFE18B11A
:1009C0009DF8080020EAE070012320766376CDE7E9
:1009D000637E01222274EBB127282AD027D95B2815
:1009E00000F002817B2860D1337A23F07F0300225C
:1009F00043F020035FFA85FB337232607260BBF113
:100A0000000F40F0D3810623002084F8603005B049
:100A1000BDE8F08F02A9606904F040FE18B19DF8AE
:100A2000080020EAE070012320766376D4E72228CC
:100A30003BD12268617E53686360936855680022E9
:100A40005B1BE360A260002900F099830546002249
:100A50001346627690461746DBB1207E6776854264
:100A60004FF0000900F02A81002800F0B1805C28D6
:100A700000F089806168002900F08380A368E26843
:100A800093426DD32368676001221A74637E002B42
:100A9000E3D1012202A9606904F000FE18B19DF8BB
:100AA000080020EAE0702076D8E700252F4604F100
:100AB0001F0947F6ED78A0F15F03DBB2A0F1410218
:100AC0001B2BD2B25FFA85FE4FD83F2D4FF00102AB
:100AD00002A935D104EB0E03002283F8202094F8FC
:100AE0002030742B1BD0662B00F0C0836E2B1ED0E1
:100AF0002B2B00F0C3852D2B00F0B885964604F112
:100B00002005A3F13002D2B2092A40F2A9812E2B8E
:100B100000F0AD86032384F86030002046E7337A86
:100B200023F07F0343F00603012233723260BEF1EB
:100B3000040F00F0BC81022384F86030002035E708
:100B4000677609F8010F606904F0A8FD18B19DF8F7
:100B5000080020EAE070012320761D446376AAE7AE
:100B60005A1CA260C854637E76E7A0F12B03192AB1
:100B7000DBB2AAD90E2B28FA03F2ABD8D307A9D53A
:100B8000A3E7637E68E7012202A9606904F086FD9D
:100B9000D8B19DF8083023EAE373D9B24FF0010AC7
:100BA000217684F819A09BB1752B00F0C8802F29FD
:100BB000C64A02D113E08B4211D012F8023F002B3B
:100BC000F9D1032384F8603005E0012320766376B1
:100BD000022384F86030002005B0BDE8F08F507823
:100BE0000028EED0677645E7327A22F07F020021B6
:100BF00042F04002EDB2327231607160002D3FF47C
:100C000002AF61760F460DF1080A4FF0010801228C
:100C10005146606904F042FD00283FF4BCAE9DF8E7
:100C2000083084F8198023EAE3732376202B00F23E
:100C3000BE8101A252F823F09D090000AF0F000011
:100C4000AF0F0000AF0F0000AF0F0000AF0F0000AC
:100C5000AF0F0000AF0F0000AF0F0000B70E000095
:100C6000B70E0000AF0F0000AF0F0000B70E00007E
:100C7000AF0F0000AF0F0000AF0F0000AF0F00007C
:100C8000AF0F0000AF0F0000AF0F0000AF0F00006C
:100C9000AF0F0000AF0F0000AF0F0000AF0F00005C
:100CA000AF0F0000AF0F0000AF0F0000AF0F00004C
:100CB000AF0F0000AF0F0000B70E00006268002AFF
:100CC00000F00081A368E1688B4280F0F680591C37
:100CD000A16002F803906368002B00F0F380D4F861
:100CE000008098E88010BC451BD99CF800E039785A
:100CF000714540F0C7857B1CBEF1000F16D06046E1
:100D000000E09AB11D4610F8012F13F8011B8A422A
:100D1000F7D019B115F8013F002BFBD16F1CBC4572
:100D2000E5D8A3686344C8F804306746337A37606F
:100D300023F07F0343F005033372012036E6677624
:100D40004FF0040B012202A9606904F0A7FC0028FF
:100D50003FF43BAF9DF8083084F819A023EAE37311
:100D6000A3F130022376002B3FF432AF402B85BF36
:100D700023F02003373BD3B2DBB243EA09190FFA61
:100D800089F20F2B0BF1FF3B1FFA82F93FF619AFE7
:100D90001BF0FF0B6776D5D109F520539BB2B3F555
:100DA000806F80F0A481C9F3090872E66276154667
:100DB0000DF1080A012701225146606904F06EFC1A
:100DC00000283FF4E8AD9DF80830677623EAE37326
:100DD0002376202B7ED801A252F823F09D09000033
:100DE000D50E0000D50E0000D50E0000D50E000077
:100DF000D50E0000D50E0000D50E0000D50E000067
:100E0000B30E0000B30E0000D50E0000D50E00009A
:100E1000B30E0000D50E0000D50E0000D50E000068
:100E2000D50E0000D50E0000D50E0000D50E000036
:100E3000D50E0000D50E0000D50E0000D50E000026
:100E4000D50E0000D50E0000D50E0000D50E000016
:100E5000D50E0000D50E0000D50E0000B30E000028
:100E60000023DFF86C8007E0434500F244844FEA3A
:100E70004C03BB4200F23F8415F8011FA1F1300082
:100E8000C0B21344092803EB830C02466FEA000743
:100E9000EAD9002940F0EC84327A336022F07F03F3
:100EA000BEF1000F00F0DE8443F00A03337201202C
:100EB0007CE565767FE76776A9E62368C4F8049049
:100EC00001221A74042384F8603084E6448F000001
:100ED000999999194FF001097D2B84F8109000F031
:100EE000478100272268617E536863609368526877
:100EF00000209B1AA060E360002900F0D081257ECD
:100F0000272D00F05C81222D00F04A81637E002BAA
:100F100000F0D981A5F13003DBB2092B10D9A5F17E
:100F20005F03DBB21B2B0BD9A5F14103DBB2192BFD
:100F300006D92B2D04D02D2D02D02E2D7FF441AEBD
:100F400061686776002900F0FF80A368E268934239
:100F5000C0F0F5802368676083F81090637E002BF3
:100F600000F0F280257EA5F13003DBB2092BE7D932
:100F7000A5F15F03DBB21B2BE2D9A5F14103DBB284
:100F8000192BDDD92B2DDBD0A5F12D03DBB2012BE5
:100F9000D6D96368002B95D0A268E1688A42C0F078
:100FA000B78123680021012261601A748AE7012257
:100FB0005D2B227400F0DC80E3695A689968103276
:100FC0009142C0F0D98010399960002900F08A80E0
:100FD000013DEFB200257368002B00F09681CA1A1C
:100FE00012115A8171604D810D72CD603B464FF0F8
:100FF00000022046FFF7B0FC00283FF4ECAD637E12
:101000004FF00108002B48D0207E202853D801A3A0
:1010100053F820F09D090000B7100000B710000041
:10102000B7100000B7100000B7100000B7100000A4
:10103000B7100000B71000009910000099100000D0
:10104000B7100000B710000099100000B7100000A2
:10105000B7100000B7100000B7100000B710000074
:10106000B7100000B7100000B7100000B710000064
:10107000B7100000B7100000B7100000B710000054
:10108000B7100000B7100000B7100000B710000044
:10109000B710000099100000657601225146606982
:1010A00004F0FCFA18B19DF8080020EAE070207600
:1010B00084F81980A9E7637E01222274002B00F0D6
:1010C000E1805D2854D02C287FF424ADE369657657
:1010D0005A689968103291424ED3103999600029AC
:1010E0007FF479AF042384F8603000205EE409F5D2
:1010F00010539BB2B3F5806FC0F04A83B9F17F0FF4
:101100008DF808B000F24C83D2B28DF809200DF1B1
:101110000A0E0EF1FF3E4FF0010C002A3FF431ADF4
:10112000606848B1A368E1688B4203F101011CD3F8
:101130002368676083F810C01EF8012DEDE75A1C84
:10114000A260CD54637E0AE701225146606904F033
:10115000A5FA10B39DF8085025EAE575A5F130030E
:10116000DBB2257684F8199000E7A160C254E3E76A
:1011700000236376012019E401221A74B2E70122E8
:1011800002A9606904F08AFA002800F098809DF8AE
:10119000080020EAE075257659E40546D023E0E70B
:1011A000637E63B901225146606904F077FA002832
:1011B00000F0A5839DF8085025EAE5752576002303
:1011C00067760093C3B1207E677685424FF00008B2
:1011D00000F08C8000283FF4FBAC5C281FD06168D5
:1011E000D9B1A368E268934212D32368676083F899
:1011F0001090637E002BE6D101225146606904F015
:101200004DFA18B19DF8080020EAE0702076DBE77F
:101210005A1CA260C854637ED4E7637ED2E70122E1
:101220005146606904F03AFA00283FF4CEAC9DF8CC
:10123000083084F8199023EAE373D9B22176002BA1
:101240003FF4C6AC752B00F0D2812F29A64A02D1FB
:1012500006E08B4204D012F8023F002BF9D1B0E433
:10126000507800283FF4ADAC6776B8E7337A326047
:1012700023F07F0343F00603BEF1050F33727FF4C2
:101280005AAC14E65146606904F008FA18B19DF8AA
:10129000080020EAE07001232076637611E701223E
:1012A0005146606904F0FAF9002800F06F829DF859
:1012B000085025EAE575257684F8199020E605465C
:1012C0002576FFF7C4BB01225146606904F0E6F9B8
:1012D000002800F09A829DF8085025EAE575A5F1EE
:1012E0003003DBB2257684F8199016E66268002A8E
:1012F0003FF4E8ADA368E1688B42C0F07B822368CD
:10130000C4F8048001221A74DCE5316071606AE679
:10131000511CA1609F546368002B3FF4D3AD637EE2
:10132000002B48D0207E202853D801A353F820F06A
:101330009D090000D3130000D3130000D313000055
:10134000D3130000D3130000D3130000D313000005
:10135000D3130000B5130000B5130000D313000031
:10136000D3130000B5130000D3130000D313000003
:10137000D3130000D3130000D3130000D3130000D5
:10138000D3130000D3130000D3130000D3130000C5
:10139000D3130000D3130000D3130000D3130000B5
:1013A000D3130000D3130000D3130000D3130000A5
:1013B000B5130000677601225146606904F06EF9AA
:1013C00018B19DF8080020EAE070207684F81990A2
:1013D000A9E7637E84F81090002B00F0EC803A2897
:1013E0007FF498AB3568D4F8048067760DE0B8F1E7
:1013F000000F03D013B107F047F970B1B5F90A3007
:10140000002B00F0428105EB03154046002D00F053
:101410003C81EB6898451946E9D129460BF1FF3329
:101420004FF000022046FFF797FA00283FF4D3ABB5
:10143000637E002B49D0207E202857D801A353F883
:1014400020F000BF9D090000ED140000ED14000025
:10145000ED140000ED140000ED140000ED14000088
:10146000ED140000ED140000C9140000C9140000C0
:10147000ED140000ED140000C9140000ED1400008C
:10148000ED140000ED140000ED140000ED14000058
:10149000ED140000ED140000ED140000ED14000048
:1014A000ED140000ED140000ED140000ED14000038
:1014B000ED140000ED140000ED140000ED14000028
:1014C000ED140000C91400006776012251466069DE
:1014D00004F0E4F818B19DF8080020EAE0702076E6
:1014E00084F81990A8E700BF448F0000637E84F859
:1014F0001090002B6DD07D283FF43AAE2C287FF45D
:1015000009AB677601225146606904F0C7F80028EC
:101510003FF441AA9DF8083084F8199023EAE37358
:101520002376202B44D801A252F823F09D09000015
:10153000B1150000B1150000B1150000B115000093
:10154000B1150000B1150000B1150000B115000083
:101550000315000003150000B1150000B1150000CF
:1015600003150000B1150000B1150000B115000011
:10157000B1150000B1150000B1150000B115000053
:10158000B1150000B1150000B1150000B115000043
:10159000B1150000B1150000B1150000B115000033
:1015A000B1150000B1150000B115000003150000D1
:1015B00084F8109096E401225146606904F06EF8B8
:1015C00018B19DF8080020EAE070207684F81990A0
:1015D00005E701225146606904F060F818B19DF8F2
:1015E000080020EAE070207684F8199083E704234D
:1015F00001951D4633466776464698460122514678
:10160000606904F04BF800283FF4DFAA9DF8082039
:1016100084F8199022EAE272A2F130012276002ABF
:101620003FF4D6AA402A85BF22F02002373ACAB238
:10163000D2B242EA061319B20F2A05F1FF358EB273
:101640003FF6BFAA15F0FF056776D7D14246B046F0
:10165000164608F5205292B2B2F5806F2B46019DD6
:1016600080F02581C8F309030093C5E504F1210545
:1016700094F821304FF0010EFFF743BA94F821306F
:10168000964604F12105FFF73CBA23680093D3F88E
:1016900004C0D3F800E0F4451DD99CF8008045460D
:1016A0009EF800108D4240F0AF810EF1010305B3AA
:1016B000604600E0EAB1984610F8012F13F8011BCC
:1016C0008A42F7D019B118F8013F002BFBD108F17D
:1016D000010EF445E4D8A368009A6344536065465C
:1016E000E26953689068103398426DD201231374F5
:1016F000F8E47546F4E7DFF8A483DFF8A4C3002715
:10170000A8FB0323DB08013763457FB2F8D809281B
:1017100088BF0A4607D815F8012FA2F1300101371A
:1017200009297FB2F7D92E2A00F0EC80287800F042
:10173000DF02452A6CD0002200287FF4EBA93A444E
:1017400007EE903A002AF8EEE77A40F36381CC4C3A
:101750000146CBB212F0010F04EB83031CBF93EDE3
:10176000007A67EE877A521001F10101F1D1BEF1E2
:10177000000F01D0F1EE677A337AC6ED007A23F0DC
:101780007F0343F00C033372FFF791BB054692E5EC
:10179000C9F3090949EA882909F580398DF808B0A3
:1017A00009F03F034FEA99191FFA89F263F07F03AA
:1017B0001F2A8DF8093068D869F03F02D2B28DF83F
:1017C0000A200DF10B0EA4E4A0F110019160002994
:1017D0003FF488AC7368002B00F00081CA1A121124
:1017E0005A817160802320F8067C40F8045C00F880
:1017F000083C13E6591CA1604FF00001D154636806
:10180000002B7FF48CADFFF75DBB0546D02369E567
:1018100068782D2800F0D3802B2800F0F78005F1A0
:10182000010CA0F13001CAB2092A84D87A18262AFC
:1018300000F386800A464FF0000904E001EB4802FD
:10184000D119262979DC1CF8010FA0F13001CDB2A5
:10185000092D02EB8208F1D9B9F1000F3FF46CAF0A
:10186000524269E743F008033372FFF720BB0023BD
:101870002978B3F5000FA1F13000C0B2BFF43BAF3F
:10188000002744E73D46FFF744BA09F03F02C9F399
:10189000891362F07F020F2B8DF80A207FDC63F042
:1018A0001F02D2B28DF80B200DF10C0E31E408F5B9
:1018B000105292B2B2F5806F55D3B8F17F0F8DF808
:1018C000083059D8CBB28DF809300DF10A00013833
:1018D000AE468BB1616849B1A268E568AA4202F1DF
:1018E000010506D32368676083F8109010F8013D66
:1018F000EFE7A5608B54F9E77546637E62E4054621
:1019000025765CE46878A0F13001C9B2092905F1B7
:1019100001053FF60CAF5B48834205D803EB830318
:10192000013F01EB43037FB215F8012FA2F1300113
:10193000C9B20929F0D91046F9E6B9F1000F50D122
:10194000337ADFED517A9FED517ABEF1000F23F02B
:101950007F0308BFF0EE477A43F00C03C6ED007A30
:101960003372FFF7A4BA009A8DF80830C8F309085B
:1019700048EA822808F580384FEA981308F03F02B9
:1019800099B262F07F021F298DF8092056D863F0C2
:101990003F03DBB28DF80A300DF10B0097E703F03F
:1019A0003F03C9F3033263F07F0342F0F0028DF886
:1019B0000B308DF80C200DF10D0EFFF7AABBA878A7
:1019C000A0F13001CAB2092A05F1020C47D8CA19A0
:1019D000262A06DC0A464FF0010934E731607160BF
:1019E00000E7337ADFED2A7A9FED2A7ABEF1000F05
:1019F00023F07F0318BFF0EE477A43F00C03C6EDE7
:101A0000007A3372FFF753BAF0465BE605F1020C39
:101A1000A87806E75242002A3FF4A9AE1E49C3B295
:101A200012F0010F01EB83031CBF93ED007A67EE08
:101A3000877A521000F10100F1D198E603F03F01DE
:101A4000C3F3891261F07F010F2A8DF80A1008DCB8
:101A500062F01F03DBB28DF80B3003A837E70022DA
:101A6000FEE602F03F02C3F3033362F07F0243F06D
:101A7000F0038DF80B208DF80C300DF10D0026E7EA
:101A80000C8F0000CBCC0C00000080FF0000807F9A
:101A90000000000000000080F48E0000CDCCCCCC13
:101AA000FFFF7F002DE9F0412DED028B037A03F05B
:101AB0007F03023B86B004460D463E2B00F249826E
:101AC000DFE813F06A006A0078007800AA00470295
:101AD000B800470229024702CE00470247024702E8
:101AE00047024702470247024702470247024702AE
:101AF000470247024702470247024702470247029E
:101B0000BC01470247024702470247024702470219
:101B1000470247024702470247024702470247027D
:101B2000470247024702470247024702470247026D
:101B3000470247024702470247024702470247025D
:101B40003F00086803685B211B6898476B6824683E
:101B50001844686054B912E014EB03140FD02868DD
:101B600003681B6898476B681844686029462046DC
:101B7000FFF798FFB4F90A302C21002BECD128682C
:101B800003685D211B6898476B681844686006B05D
:101B9000BDEC028BBDE8F0810868626803682168CB
:101BA0005B6898476B681844686006B0BDEC028BB0
:101BB000BDE8F08108682668036822211B68984701
:101BC0006B681844013E686016F8011FB9B12229FC
:101BD00000F0E081A84B03E0DA788A4200F0DB8174
:101BE0001C790233002CF7D1286803681B689847DA
:101BF0006B681844686016F8011F0029E7D128684F
:101C0000036822211B6898476B681844686006B017
:101C1000BDEC028BBDE8F08103680868002B40F042
:101C2000D981036895495B68052298476B68184419
:101C30006860ACE70DF116040368914E2146A6FBDF
:101C40000302D20802EB8200A3EB4003303301F819
:101C5000013D1346002AF2D12868621A03689FE703
:101C600090ED008AB4EE488AF1EE10FA80F17181AD
:101C7000DFED847AB0EEC87AB4EE677AF1EE10FA4E
:101C800000F36781B5EEC08AF1EE10FA00F1BA8177
:101C9000DFED7D7AB4EEE78AF1EE10FAC0F2A781AB
:101CA0007A4B7B49A3F118000027202273ED017ABB
:101CB000F4EEC87AF1EE10FA05D8D1ED057A1744A2
:101CC00028EE278A3FB283424FEA6202A1F1040163
:101CD000ECD14FF0FF33B5EEC08AF1EE10FA20DD03
:101CE000DFED6C7AB4EEE78AF1EE10FA19D8581CE1
:101CF00017D0694E694C99007018D0ED007AB4EE97
:101D0000E78A013BF1EE10FA5BB2214405D5D1ED33
:101D1000007ABF1A28EE278A3FB2591C4FEA6202A6
:101D2000E9D1FCEEC87A17EE900A092840F2B98191
:101D30005B4A534C17EE903A0521A4FB0363DB0882
:101D4000A4FB026201F1FF3E092B4EB24FEAD20220
:101D50005FFA8EF1F1D807EE902AF8EEE77A07EEF7
:101D6000100AB8EE477A38EE478A68EE277ABCEE5A
:101D7000E77AF8EE476A17EE103A77EEE67A77EEF2
:101D8000A77AFCEEE77A17EE908A9844424500F273
:101D900023810130002F40F02E814FF00008002EEB
:101DA00010DD374A00E06EB1A2FB08384FEAD808D0
:101DB000A2FB0813DB0803EB8303013EB8EB430FE0
:101DC00076B2F0D00DF11604DFF8B4E02146AEFB98
:101DD0000023DB0803EB8302A0EB4202303201F860
:101DE000012D1846002BF2D128680368621A5B683F
:101DF00098476B6818446860002E40F02D81002FD2
:101E0000C0F20D8100F009812868264E0368652123
:101E10001B6898476B6818446860214686FB073248
:101E2000FB17C3EBA20202EB8203A7EB43033033A1
:101E300017B201F8013D002FF0D10DE708680368E3
:101E40007B211B6898476B68276818446860002FDF
:101E500000F0B3802868FE68036822211B68984759
:101E60006B681844013E686016F8011F00292DD0E8
:101E700022297CD0004B1AE0448F00006C8F0000B8
:101E8000CDCCCCCCFFFF7F7F8096184B248F0000F9
:101E9000F48E0000ACC52737DC8E00000C8F0000EC
:101EA00040420F0067666666DA788A4260D01C7925
:101EB0000233002CF8D1286803681B6898476B68C8
:101EC0001844686016F8011F0029D1D128680368FA
:101ED00022211B68984795E80C0011681844686037
:101EE0000B6810463A2198476B6818446860294689
:101EF0003846FFF7D7FDB7F90A30002B5DD017EB56
:101F000003175AD0286803682C211B6898476B6810
:101F1000184468609EE7086826680368634F1B687A
:101F20002D2198476B680DF116041844686021460E
:101F3000A7FB0623DB0803EB8302A6EB4202303249
:101F400001F8012D1E46002BF2D12868621A0368A1
:101F500026E628685649036804225B6898476B6840
:101F60001844686006B0BDEC028BBDE8F0810C46F9
:101F7000286803685C211B6898472A6869681368A9
:101F8000084468601B682146104698476B681844EF
:101F9000686069E70C46286803685C211B689847FD
:101FA00095E80C001768184468603B6821461046A5
:101FB00098476B681844686006E6286803687D21C6
:101FC0001B6898476B681844686006B0BDEC028BCC
:101FD000BDE8F0813749BEE7344BA3FB0823DB089B
:101FE00003EB8303B8EB430F3FF4D9AEEAE62022BC
:101FF000052300276FE609287FF6CFAE01373FB2F1
:102000000120CAE6286803682D211B6898476B6881
:102010001844B1EE488A68603AE66868B7E528680F
:1020200025490368254E5B68022298476B6818446F
:102030007F426860214686FB0732FB17C3EBA20292
:1020400002EB8203A7EB430707F1300301F8013DE0
:102050001746002AEFD1FFE5731EDBB2C3F10F0E66
:1020600004AADFF848C0EE441646ACFB0801C908D4
:1020700001EB8100A8EB4000303006F8010D7645F9
:102080008846F2D1D94311442E23286801F8013C37
:10209000036801395B68521A98476B681844686096
:1020A000ADE6DFED077A074A062658E6CDCCCCCC64
:1020B000588F0000648F0000608F000067666666BE
:1020C0000024744940420F002DE9F0472DED028BAA
:1020D000A4B003F069F9002842DDBB4CDFF820E32F
:1020E0006368A360271D079707AB0FCB94F82050B8
:1020F0002669E66025F07F05002684F820500BADA8
:1021000085E80F0026754FF00A034FF000022846BD
:1021100004F1180112978DF83C608DF845608DF838
:102120008C60CDF840E0FEF717FC94F820309A065A
:1021300016D5A669A54F344694B1E168A34DB942BE
:1021400000F0058329B1284606F09EFA002800F029
:10215000FE82B4F90A301BB104EB0314002CECD15D
:102160009B4C9C4A23680193019B11685B1A012BCD
:1021700040F2F68023680393039B13600E2001F066
:102180005BFF07EE900A944BB8EEE77A03F1480242
:10219000F0EE477A53ED052A13ED096A13ED043A80
:1021A00043ED097A67EEA27A53ED083A13ED034A3C
:1021B00053ED076A53ED024A13ED065A53ED015AE7
:1021C00003ED086AE6EE037A243343ED0F6AE3EE8B
:1021D000847AE6EEA47AE5EE257A43ED107A9A4207
:1021E000D8D17E4B77EE677A03F1480213ED053ABA
:1021F00053ED096A53ED043A43ED097A67EE837AA9
:1022000013ED084A53ED034A13ED077A13ED025A12
:1022100053ED065A13ED016A43ED086AE6EEA37A20
:10222000243303ED0F7AE4EE247AE7EE057AE5EE47
:10223000867A43ED107A9342D8D169490A78022A06
:1022400000F23687930001EB8200C3F118039FED83
:10225000657AC0ED017A0B44084601F10C050430A3
:10226000D0ED006AF3EC017AA842A6EEA77AF6D187
:102270000132D2B2032A0ABF00230A700B705A49F6
:102280000A78022A00F21487930001EB8200C3F15E
:1022900018039FED548A80ED017A0B44084601F142
:1022A0000C05043090ED007AF3EC017AA842A7EE19
:1022B000278AF6D14D4E4E4DD6ED007A4D4F4E4801
:1022C0000132D2B2032A08BF002378EE677A0CBF2E
:1022D0000B700A700BA9C5ED007A01F0AFFC97F8FE
:1022E00020902368029319F07F03DDF8088009D15C
:1022F00029F07F0949F020095FFA89F987F82090D1
:10230000BB61FB6119F0200F38D0BC69DFF8ECA08D
:102310005CB3E168514500F0D98229B1374806F035
:10232000B3F9002800F0D282B4F90A30EBB104EB23
:102330000314EDE7129A237A226023F07F0343F01F
:102340000C0323722E4B049304A900232D480593FC
:10235000FFF7A8FB01212C4803F050F886ED008A16
:1023600024B0BDEC028BBDE8F087BA68F968214B58
:102370001032914280F0948201221A7519F07F0385
:1023800009D129F07F0949F020095FFA89F987F816
:102390002090BB61FB6119F0200F42D0BC69DFF8CF
:1023A0006C80ACB3E168414500F0DE8229B117488A
:1023B00006F06AF9002800F0D782B4F90A303BB37E
:1023C00004EB0314EDE700BF1012FF1F748F000031
:1023D000F012FF1F0812FF1F5812FF1FB012FF1F3D
:1023E0009811FF1F00000000BC11FF1F0412FF1F07
:1023F0000C12FF1FE011FF1FD412FF1F788F000087
:102400008408FF1FF811FF1FB88F0000808F0000A5
:10241000B968FB68AD4A10318B4280F08F8201238E
:102420001375272001F07AFF97F82030A74A13F0A0
:102430007F01804608D123F07F0343F02003DBB205
:1024400082F820309161D1619A061DD5BC69DFF810
:10245000809284B1E168494500F0F48129B19C483B
:1024600006F012F9002800F0ED81B4F90A3013B13A
:1024700004EB0314EDE7BA68F968944B103291420B
:1024800080F0CA8101221A75262001F047FF97F8D3
:1024900020908E4B19F07F02804609D129F07F09E8
:1024A00049F020095FFA89F983F820909A61DA618E
:1024B00019F0200F1DD0BC69DFF818A284B1E168C3
:1024C000514500F0DE8129B1824806F0DDF8002890
:1024D00000F0D781B4F90A3013B104EB0314EDE72F
:1024E000BA68F968794B1032914280F0B4810122C8
:1024F0001A7519F07F0309D129F07F0949F02009E5
:102500005FFA89F987F82090BB61FB6119F0200F11
:102510001DD0BC69DFF8C081002C00F07283E16837
:1025200041450CD019B16C4806F0AEF838B1B4F999
:102530000A30002B00F0658304EB0314ECE72A68F3
:10254000237A226023F07F0343F00C0323720F20D1
:1025500001F072FD97F820305C4AC0F57F7513F0EA
:102560007F0105F1030508D123F07F0343F0200329
:10257000DBB282F820309161D1619B061DD5BC6928
:10258000DFF8588184B1E168414500F03A8129B112
:10259000524806F079F8002800F03381B4F90A3087
:1025A00013B104EB0314EDE7B968FB68474A103137
:1025B0008B4280F0108101231375102001F03CFD47
:1025C00097F82040414BC0F57F7814F07F0208F166
:1025D000030808D124F07F0444F02004E4B283F817
:1025E00020409A61DA61A5061DD5BD69DFF8F0903B
:1025F00085B1E968494500F08E8129B1384806F077
:1026000043F8002800F08781B5F90A3013B105EBD3
:102610000315EDE7BA68F9682C4B1032914280F04F
:10262000648101221A7514F07F0308D124F07F041D
:1026300044F02004E4B287F82040BB61FB61A006AF
:102640001FD5BD69DFF89C80002D00F0C682E968C7
:1026500041450CD019B1234806F016F838B1B5F948
:102660000A30002B00F0B98205EB0315ECE7109A55
:102670002B7A2A6023F07F0343F00C032B7297F828
:10268000204014F07F0308D124F07F0444F020049C
:10269000E4B287F82040BB61FB61A10630D5BD697B
:1026A000DFF84480002D00F0A282E96841451DD08A
:1026B00019B10D4805F0E8FFC0B1B5F90A30002B9B
:1026C00000F0958205EB0315ECE700BFE011FF1F5A
:1026D000848F0000888F00008C8F0000948F000092
:1026E000A08F0000AC8F0000B08F0000119A2B7AF1
:1026F0002A6023F07F0343F00C032B7297F82040ED
:1027000014F07F0308D124F07F0444F02004E4B2E5
:1027100087F82040BB61FB61A2067FF513AEBC6960
:10272000B64D002C00F04E82E168A9423FF402AEA3
:1027300029B1B24805F0A8FF00283FF4FBADB4F979
:102740000A30002B00F03E8204EB0314E9E7237A01
:102750005B063FF405AD3746002F00F03182F96883
:10276000A94200F05F8129B1A54805F08DFF00283E
:1027700000F05881B7F90A40BCB107EB0417EBE74A
:1027800027683B782B2B00F044832D2B40F03F83B0
:1027900001207B780744A3F13002D2B2092A40F22B
:1027A0005C822E2B00F060830024002E00F0068255
:1027B000F168A94200F0F88029B1914805F064FF62
:1027C000002800F0F180B6F90A10002900F0E78037
:1027D00006EB0116E9E7A3F11004D460002C3FF4E6
:1027E000ECAED169002900F00084601A0011488124
:1027F000D4610022834923F8062C03F8082C43F8FF
:10280000041C002D237AC0F2C68123F07F0343F01D
:10281000080325602372D0E6A1F11004DC60002CCF
:102820003FF432AEDA69002A00F0BC83A01A00112E
:102830005081DC610023744A21F8063C01F8083C11
:1028400041F8042C237AC4F8008023F07F0343F07E
:102850000803237218E6A1F11004DC60002C3FF499
:1028600048AEDA69002A00F09483A01A0011508162
:10287000DC610023654A21F8063C01F8083C41F878
:10288000042C237AC4F8008023F07F0343F008036C
:10289000237297F8209019F07F037FF437AE2BE670
:1028A000A1F11004DC60002C3FF468ADDA69002A65
:1028B00000F06C83A01A00115081DC610023544A9F
:1028C00021F8063C01F8083C41F8042C237AC4F8AE
:1028D000008023F07F0343F00803237297F82090D1
:1028E00019F07F037FF457AD4BE5A1F11005DD60D2
:1028F000002D3FF498AEDA69002A00F05083A81A40
:1029000000115081DD610023424A21F8063C01F8A4
:10291000083C41F8042CB8F1000F2B7AC0F2438137
:1029200023F07F0343F008032B72C5F8008097F86B
:10293000204014F07F037FF482AE77E6A3F1100409
:10294000D460002C3FF46DADD169002900F01B83E9
:10295000601A00114881D46100222F4923F8062C07
:1029600003F8082C43F8041C237A84ED008A23F032
:102970007F0343F00C03237253E5D1ED007A9FED02
:10298000277AF4EEC77AF1EE10FA07DB9FED247A8E
:10299000F4EEC77AF1EE10FA40F2348200212046BC
:1029A000FDF770FDFFF7DCBB337A03F0400303F063
:1029B000FF01002BF3D03268B2F90A100029EED0E3
:1029C00008011118EBD00B7A03F07F03043B082BAE
:1029D000E4D801A555F823F0D72A0000D72A000033
:1029E000CB2A00009D290000CB2A00009D29000071
:1029F000BD2A00009D2900007B290000B48F000043
:102A0000748F0000948F0000848F0000888F000076
:102A1000788F0000A08F0000808F0000000000CFA2
:102A20000000004F3B7A03F0400303F0FF04002B4B
:102A30003FF4BBAE3C68002C3FF4B7AE237A03F002
:102A40007F03043B082B3FF6AFAE01A252F823F000
:102A50008127000081270000B12A0000A92700007B
:102A6000B12A0000A9270000A32A0000A92700001E
:102A7000752A0000D4ED007A1FED187AF4EEC77ABB
:102A8000F1EE10FAFFF690AE1FED1B7AF4EEC77A66
:102A9000F1EE10FA3FF688AEFDEEE77A17EE904AB7
:102AA00083E62468B4F1004F3FF67EAE64427CE6D4
:102AB0002468B4F1004F28BF002476E61158B1F124
:102AC000004F3FF66BAF494269E71158B1F1004F33
:102AD00028BF002163E7125813782B2B00F09F8149
:102AE0002D2B40F09A81012753783A44A3F1300509
:102AF000EDB2092D4FF0000140F28D802E2B7FF4B6
:102B00004EAF1378B1F5000FA3F13000C0B2C0F0A2
:102B1000CC82C74EC74D4FF0000EA6FB01C1C908BD
:102B20000EF1010EA9424FFA8EFEF6D8092809D8F7
:102B300012F8013FA3F130050EF10100092D4FFA03
:102B400080FEF5D92E2B00F0FC81157805F0DF030F
:102B5000452B00F0C7810020002D7FF41FAF70448B
:102B600007EE901A0028F8EEE77A40F38B82B24A1B
:102B7000C60706D5EBB202EB830393ED007A67EE4E
:102B8000877A401005F10105F2D1002F3FF4F7AE2E
:102B9000F1EE677AF3E623F07F036D4243F00A0318
:102BA0002560237209E523F07F03C8F1000243F09A
:102BB0000A032A602B7297F8204034E53146EEE68E
:102BC0003C46F2E5B968FB689C4A10318B4280F0C4
:102BD000AC8001231375FFF7B5BBBA68F868974B53
:102BE0001032904280F0BA8001221A7549E5BA6825
:102BF000F868924B1032904280F0E18001221A7501
:102C00007EE5BA68F8688D4B1032904280F0BE8045
:102C100001221A759BE4DFF840E20AE071453FF6B5
:102C200078AF01EB81014900C643B14205463FF64A
:102C300070AF12F8013FA3F13000C0B20928294457
:102C4000ECD9002B7FF45DAF002F00F0EC80B1F1E8
:102C5000004F7FF638AF1946A1E60023DFF8F8C130
:102C600008E063451CD803EB830472466300D44339
:102C7000A34215D817F8011FA1F1300E5FFA8EFE9E
:102C8000BEF1090F1344ECD9002940F0EE80002872
:102C900000F0E480B3F1004F00F2AA815C4284E5C9
:102CA0000A46DFF88C8163494FF0000CA8FB03341F
:102CB000E3080CF1010C8B424FFA8CFCF6D8BEF104
:102CC000090F09D817F8012FA2F130010CF1010CFE
:102CD00009294FFA8CFCF5D92E2A00F066813C7840
:102CE00004F0DF02452A00F0CC800022002C7FF4A3
:102CF0005BAD624407EE903A002AF8EEE77A40F3C3
:102D000092814D49D30706D5E3B201EB830393EDDE
:102D1000007A67EE877A521004F10104F2D100289C
:102D20003FF4AAAEF1EE677AA6E6A3F11004D460F0
:102D3000002C3FF407ABD169002900F02D81601A07
:102D400000114881D461002103F8081C3C48129A04
:102D500023F8061C43F8040CFFF7EDBAA0F11005A8
:102D6000DD60002D3FF48DACDA69002A00F03A8175
:102D7000A91A09115181DD61002300F8083C31498D
:102D8000109A20F8063C40F8041C71E4A0F11004ED
:102D9000DC60002C3FF4DBABDA69002A00F0ED8048
:102DA000A11A09115181DC61002300F8083C264971
:102DB0002A6820F8063C40F8041CFFF7C1BBA0F1CC
:102DC0001005DD60002D3FF49BACDA69002A00F0AD
:102DD000D780A91A09115181DD61002300F8083C50
:102DE0001A49119A20F8063C40F8041C7FE4002B95
:102DF0003FF431AFDFED167A9FED167A002F08BF52
:102E0000F0EE477AFDEEE77A17EE901AC7E500205C
:102E1000C1E47B7800200137BDE4002766E65378E3
:102E20000027013262E6B1F1004F28BF0021B6E56C
:102E3000CDCCCCCCFFFF7F000C8F0000E011FF1F3A
:102E4000B48F0000AC8F00008C8F0000B08F0000AA
:102E5000000000800000000099999919B3F1004F1B
:102E600034BF1C460024A0E400233A78B3F5000FD9
:102E7000A2F1300E5FFA8EFEBFF413AF4FF0000CDC
:102E80001DE77C782D2C00F0EA802B2C08BFBC7845
:102E9000A4F13001CAB214BF01370237092A3FF644
:102EA00024AF0CEB0102262A3FF77EAC0A464FF016
:102EB000000808E002EB820201EB420202EB0C0187
:102EC000262900F3988017F8014FA4F130015FFA2A
:102ED00081FEBEF1090FEDD9B8F1000F3FF406AF46
:102EE000524203E755782D2D00F08B802B2D08BF23
:102EF0009578A5F13003D8B214BF01320232092807
:102F00003FF629AE03EB0E0026283FF747AD1846E3
:102F1000002308E000EB800006EB40000EEB00050C
:102F2000262D3FF764AF12F8015FA5F130065FFA76
:102F300086FCBCF1090FEDD9002B3FF40DAE4042E9
:102F40000AE65578A5F13003DBB2092B02F1010244
:102F50003FF6FCAD574EB14207D801EB81010EF1AF
:102F6000FF3003EB41014FFA80FE12F8015FA5F13B
:102F70003003DBB2092BEED9E8E59C61DC6113E795
:102F80009D61DD6129E79461D461E5E49C61DC61C8
:102F900094E49C61DC616CE49461D461D3E69D614E
:102FA000DD61B0E49C61DC6144E47C78A4F1300133
:102FB000C9B2092907F101073FF692AEDFF8F4E044
:102FC000734507D803EB83040CF1FF3201EB440394
:102FD0004FFA82FC17F8014FA4F13001C9B2092958
:102FE000EED97DE69D61DD61C6E69461D46100E4C1
:102FF0000C46FFF7DABBB8F1000F27D14446FFF7C4
:10300000D4BB9578A5F13003D8B2092802F10202A9
:1030100088BF002093D80EEB030026283FF7EAAEC6
:10302000184601237FE75242002A3FF478AE224936
:10303000D70706D5E3B201EB830393ED007A67EE81
:10304000877A521004F10104F2D168E6DFED1B7AB1
:103050009FED1B7A002808BFF0EE477A1CE5BC788C
:10306000A4F13001CAB2092A07F1020788BF002281
:103070003FF636AF0CEB0102262AE7DC0A464FF09A
:10308000010820E7404200283FF47FAD0A4AC1070B
:1030900006D5EBB202EB830393ED007A67EE877AF5
:1030A000401005F10105F2D16FE54FF0000E3DE54E
:1030B00000F0F2FDCBCC0C00F48E0000000000808C
:1030C0000000000010B51421044602F05DFB20460C
:1030D00010BD00BFFFFFFFFF2DE9F0419FED2A0B60
:1030E00082B03148DFF8F880304C314D314F324EEC
:1030F000FDF71AFA9FED260B3048FDF715FA01216E
:103100009FED250B2E48FDF7DBFB9FED250B0121E5
:103110002C48FDF7D5FB2C4A2C4B12680192019AE2
:103120001A604046002102F013FB2246404628491F
:1031300004F012F8274B28462822372100F0D0FB54
:10314000224628462449254D04F006F838464FF01B
:1031500000024FF48061FDF735FA224631463846C9
:1031600003F0FAFF28464FF000024FF48061FDF7AC
:1031700029FA22463146284603F0EEFF02B0BDE8A8
:10318000F08100BFAFF300809A9999999999C93F4E
:103190009A9999999999D93FFCA9F1D24D62603FCA
:1031A000B81E85EB51B8CE3F9811FF1F3007FF1FA7
:1031B000D412FF1F1012FF1F75040000BC11FF1F67
:1031C0003412FF1F8C12FF1FF012FF1F0812FF1F87
:1031D000D1560000A007FF1F71040000E011FF1F7F
:1031E0007C12FF1F0020704790F8392090F83800BB
:1031F000101A704790F8383090F839209A4205D963
:103200005A1C034480F83820187E70474FF0FF3076
:10321000704700BF90F8383090F839209A4286BF46
:103220001B18187E4FF0FF30704700BF704700BF7B
:1032300038B50546B0F85E0090B195F85D3014469B
:10324000C3F1210294420CD805F13B0018442246F8
:1032500000F046FD95F85D30234485F85D3020464A
:1032600038BD012014462871EEE700BFB0F85E308B
:103270006BB190F85D30202B07D8C218013380F86D
:103280005D30012082F83B1070470123037100205C
:10329000704700BF0023426980F8383080F8393029
:1032A00080F85C3080F85D3080F85E3080F85F3008
:1032B00006CA30B40D68046943662A4383660A600F
:1032C000A370426990F861301649146813441D7A5E
:1032D0005B7B01EBC5051B026D6803F4E06343F003
:1032E00064032B6090F8623013449D7CDB7D01EB1E
:1032F000C5011B02496803F4E06343F064030B60FB
:1033000021685368194205D003692C225A70036959
:1033100004229A71036920225A71036980229A70EB
:1033200030BC7047AC90000038B50269D478E4B284
:10333000E106054624D51023D37063061FD504F09B
:10334000040404F0FF03002C5AD042496A6E0023A3
:103350000B7085F85D30002A66D0904795F85D3097
:10336000002B61D02B69D0229A702B6995F83B20F5
:103370001A712B69012285F85C200222DA7038BDAF
:1033800004F0400303F0FF00002BD8D19379DBB2A7
:1033900003F0600160294ED0937803F0100303F02E
:1033A000FF01B3B114F0010437D195F85C3095F802
:1033B0005D1099424BD9591C2B4485F85C1093F849
:1033C0003B3013712B69D0229A702B690222DA707C
:1033D000D5E785F86010937943F0200393712B694A
:1033E00095F839101A791F29D2B2C6D81948007831
:1033F0000028C2D06818013185F839100276BCE780
:103400002A6985F83930C02393702B69114A1979DC
:10341000012111700222DA70B1E7C02393702B6989
:103420001A790222DA70AAE70122002385F85D20CA
:1034300085F83B3096E703F0DF039371AB6E23B161
:1034400085F8380095F8390098472A69A4E714717F
:10345000B8E700BFE812FF1F2DE9F047374FDFF84C
:10346000E0903B68026982B006460093DDF8008078
:1034700000214FF49675D3789B065BD53B6801938A
:10348000019BC8EB03030F2BF5D949B1102BF2D0E8
:1034900000209070336980229A7002B0BDE8F087F6
:1034A000726996F8613013440521187A00F044FFE0
:1034B000726996F861301344012193F812A05046C6
:1034C00000F03AFF09240021504600F021FF2B466E
:1034D000013BFDD10121504600F01AFF2B46013B74
:1034E000FDD1013CEFD1706996F8611001444FF4B1
:1034F00016720C7A4B7B09EBC4011B02496803F47A
:10350000E06343F064030B6096F862300344997CF7
:10351000DB7D09EBC1011B02496803F4E06343F062
:1035200064030B60013AFDD13269D3789B064FF0FA
:103530000101A3D4012002B0BDE8F087F012FF1F03
:10354000AC900000F0B503691222DA70026993783A
:1035500003F0200385B004460D46002B5ED0B42353
:1035600093703C4922690B680093009E05E00B684C
:103570000193019B9B1B042B42D8D37803F02003BB
:1035800003F0FF00002BF2D094F85D30002B31D017
:103590004FF0000E4FF0020C04EB0E0393F83B309B
:1035A00013710B680393039F206907E09B060DD5F9
:1035B0000B680293029BDB1B052B28D8C378DBB278
:1035C00003F0020202F0FF06002AEFD080F803C0E9
:1035D0002669F378DBB2DF0632462DD49F062BD561
:1035E000DB0731D40EF1010E94F85D305FFA8EFEE8
:1035F0007345D1D800201DBB002384F85E3004E061
:103600009070236980229A70042005B0F0BD867006
:103610002369802204209A7005B0F0BD03F0FF06F4
:10362000FFF71AFF10B9042005B0F0BD236984F834
:103630005F60B0229A7094E78023B3700420DAE7C9
:1036400026698023B370D7E7BEF1000F0CBF0220BC
:103650000320F6E7F012FF1F2DE9F041066900256F
:10366000122780F8385080F83950F770D0F810C021
:103670009CF802E00EF0200E88B0044688461546FD
:103680001E46BEF1000F49D0B4238CF802307A4BAD
:1036900021691A680092DDF800E006E01A680192DC
:1036A0000198CEEB0000042830D8C87800F0200044
:1036B00000F0FF070028F1D04FEA480242F0010273
:1036C000D2B20A711A680292DDF808E0206906E0B9
:1036D0001A6803920399CEEB010105292AD8C17813
:1036E00001F0020101F0FF070029F1D04FF0020CB8
:1036F00080F803C02269D17811F0110722D12DBBC7
:10370000002E0CBFA0238023937003E08F702369E9
:1037100080229A70384608B0BDE8F0810EF0FF07AD
:10372000FFF79AFE0028F5D0236984F85F70B02275
:103730009A70ACE787702369802238469A7008B087
:10374000BDE8F081802393700027E3E7012D78D056
:10375000A021917021690A79BE4667464FF0A80CF6
:103760001A680492049805E01A680592059A121ADC
:10377000052A4DD8CA7802F0020202F0FF08002A9A
:10378000F2D0CF702169CA78D2B212F0100F084679
:103790005DD192065BD5013DEDB2012D4CD0BEF15D
:1037A0001F0F3ED90A79012DDAD11A680692069DBB
:1037B00005E01A680792079A521B052A56D8C27864
:1037C00002F0020202F0FF01002AF2D00223C370CD
:1037D0002269D378DBB2D9063BD49B0637D5B02318
:1037E000BEF11F0F937043D8226904EB0E031279C8
:1037F0001A760EF1010E5FFA8EFE00BF00BF00BF09
:1038000016B1236980229A7084F839E0774681E7FF
:1038100081F80280236980229A70774684F839E023
:1038200078E704EB0E0291F8048082F818800EF11C
:10383000010E5FFA8EFEB6E781F802C021690846E4
:10384000ADE7A82191702069BE460279ADE77746C1
:1038500060E710214FF49673D170013BFDD12269CE
:10386000937803F0F7037746937053E78170D1E7BD
:1038700023691B79C1E700BFF012FF1F0148FFF762
:1038800053BD00BFA007FF1F0148FFF74DBD00BF9C
:103890000C08FF1F0148FFF747BD00BF3407FF1F9B
:1038A00038B528220C4605460846002104F084FC61
:1038B0000B220949204605F031F90022E272E8683E
:1038C00006492061002301250320E56062626061F2
:1038D0002162A361E36138BD409000000AD7233C18
:1038E00030B4034D0560C1604271836030BC7047E5
:1038F0005090000070B504464079A3680125A840A7
:1039000083F85E5083F85D5083F83B00A06803683D
:103910001B6816469847A068036831461B6898479D
:103920002946A068FFF70EFE284670BDF8B50025B1
:103930002A460F46067C05743D210446FFF7DAFF50
:103940001E2000F0FFFC192000F0FCFC2A46204657
:103950000721FFF7CFFFAFB93A463F212046FFF7D7
:10396000C9FF0A2000F0EEFC3246267420463D21B5
:10397000FFF7C0FF1E2000F0E5FC1420BDE8F84072
:1039800000F0E0BC80223F212046FFF7B3FFE8E7CC
:1039900038B5427983680125AA4083F83B2083F833
:1039A0005E5083F85D500446806803681B68984742
:1039B0002946A068FFF7C6FD2B462A466179A06814
:1039C000FFF74AFEA0680B4A03685B6993420BD17C
:1039D00090F8383090F839209A4208D95A1903449F
:1039E00080F83820187E38BD9847C0B238BDFF2017
:1039F00038BD00BFF531000038B5044680680D467B
:103A0000FFF748FC20460021FFF7C2FFA0280BD09B
:103A10004FF47A7000F096FC00212046FFF7B8FFC3
:103A2000A02801D0002038BD002222743D2120466C
:103A3000FFF760FF1E2000F085FC20223F2120467A
:103A4000FFF758FF1E2000F07DFC01E000F07AFC3B
:103A500000212046FFF79CFFA0284FF00A00F5D177
:103A6000322000F06FFC00223E212046FFF742FF8B
:103A70000A2000F067FC002207212046FFF73AFFEA
:103A800000223F212046FFF735FF0A2000F05AFCB4
:103A90002A463D2125742046FFF72CFF1E2000F00A
:103AA00051FC142000F04EFC012038BD2DE9F041FE
:103AB0004479054601278068BC4080F83B4080F887
:103AC0005E7080F85D70A8680468D4F800801E46B7
:103AD0001446C0473946A868FFF734FD3B463246D6
:103AE0006979A868FFF7B8FD0EB3013E54FA86F66F
:103AF000114F013C10E090F8383090F839209A428C
:103B000003F1010E00EB030114D980F838E0087EC0
:103B100004F8010FB4420AD0A86803685B69BB428D
:103B2000E9D09847C0B204F8010FB442F4D10120A3
:103B3000BDE8F081FF20EBE7F5310000F0B5044669
:103B400083B0002516460846256031466560A560AD
:103B5000E560256165616A4606230095ADF804506D
:103B6000FFF7A4FF9DF803709DF805509DF8010034
:103B70009DF800109DF802209DF8043041EA0020D5
:103B800042EA072243EA0523083E00B217B21DB2FB
:103B9000262E2FD8DFE806F0142E2E2E2E2E312EB4
:103BA0002E2E2E2E312E2E2E2E2E312E2E2E2E2E2F
:103BB0002E2E2E2E2E2E2E2E142E2E2E2E2E140087
:103BC00003F022FC00221B4B03F0AEFDC4E9000110
:103BD000384603F019FC0022164B03F0A5FDC4E99A
:103BE0000201284603F010FC0022124B03F09CFD5A
:103BF000C4E90401204603B0F0BD03F005FC002237
:103C00000D4B03F067FCC4E90001384603F0FCFBF0
:103C10000022094B03F05EFCC4E90201284603F0D0
:103C2000F3FB0022044B03F055FCC4E904012046D9
:103C300003B0F0BD000059400000B03F70B524262D
:103C400088B00C46054632460846002104F0B4FA16
:103C5000104BE9681B680193019B2361032261609B
:103C6000A26029461A2202A82660FFF767FFDDE955
:103C7000020103F0F1FE6061DDE9040103F0ECFEF6
:103C8000A061DDE9060103F0E7FEE061012008B074
:103C900070BD00BFF012FF1F08B501210D2000F01C
:103CA0004BFB01210D2000F033FB322000F04AFBDA
:103CB00000210D2000F02CFB322000F043FB0121FD
:103CC0000D2000F025FB322000F03CFB00210D20F0
:103CD00000F01EFB40F2523000F034FBE1E700BF81
:103CE000844641EA000313F003036DD1403A41D307
:103CF00051F8043B40F8043B51F8043B40F8043BC6
:103D000051F8043B40F8043B51F8043B40F8043BB5
:103D100051F8043B40F8043B51F8043B40F8043BA5
:103D200051F8043B40F8043B51F8043B40F8043B95
:103D300051F8043B40F8043B51F8043B40F8043B85
:103D400051F8043B40F8043B51F8043B40F8043B75
:103D500051F8043B40F8043B51F8043B40F8043B65
:103D600051F8043B40F8043B51F8043B40F8043B55
:103D7000403ABDD2303211D351F8043B40F8043BF5
:103D800051F8043B40F8043B51F8043B40F8043B35
:103D900051F8043B40F8043B103AEDD20C3205D305
:103DA00051F8043B40F8043B043AF9D2043208D0FD
:103DB000D2071CBF11F8013B00F8013B01D30B886F
:103DC00003806046704700BF082A13D38B078DD04D
:103DD00010F003038AD0C3F10403D21ADB071CBF1F
:103DE00011F8013B00F8013B80D331F8023B20F889
:103DF000023B7BE7043AD9D3013A11F8013B00F8C2
:103E0000013BF9D20B7803704B7843708B78837049
:103E100060467047374A384913681B06FCD40B6864
:103E200013F08003F8D172B634490A78002A5FD0C3
:103E3000334A3448F0B4344C176806682568D468AF
:103E40000C303E44143200681268304F35442C4424
:103E500020440244C2F34E022D4E2E482E4D2F4CCC
:103E600042F400423A60376806682D682C4A24689C
:103E70000C303E44006812682A4F35442C442044DC
:103E80000244C2F34E02284E2848294D294C42F4E0
:103E900000423A60376806682D68274A24680C306B
:103EA0003E4400681268254F35442C4420440244A7
:103EB000C2F34E02224E2348234D244C42F40042CA
:103EC0003A60376806682D68214A24680C303E4401
:103ED0000068126835442C4420440244C2F34E0268
:103EE0001C4842F4004202600B7062B6F0BC70479E
:103EF00062B6704724B0034024B00B40EA12FF1FA3
:103F000038B003403CB0034040B003402CB0034005
:103F100058B003405CB0034060B0034064B003405D
:103F20006CB0034030B0034038B00B403CB00B40A5
:103F300040B00B4044B00B404CB00B402CB00B4099
:103F400058B00B405CB00B4060B00B4064B00B400D
:103F50006CB00B4030B00B4030B42948294A2A4B92
:103F60002A4D6024E121047011701B78284C082B25
:103F700030D00A2B2748284937D00C2B0CBF3522CC
:103F80005D2212232A60236002600B60234B2449C8
:103F90001B78244ABBB101230B601360224B2349D9
:103FA0001B78234A012B26D9042B0FD9082B1ED9A5
:103FB000102B94BF862387230B6013601D4B0122B7
:103FC0001A7030BC70470B601360E7E784230B6006
:103FD0001360F3E700F58E200F49083021221323E8
:103FE0002A60236002600B60D0E73922F7E785235F
:103FF0000B601360E2E780230B601360DEE700BF15
:1040000000400740014007407808FF1F08B0034008
:104010000CB0034008B00B400CB00B40ED12FF1F7A
:1040200020B0034020B00B407908FF1F24B00340AC
:1040300024B00B40EA12FF1F47282FD8334B2DE93D
:10404000F0411E5CFF2E2BD0314B1B78002B2AD168
:1040500032062CD472B62F4D2F4C2F4601232660EA
:104060002B7062B672B623681B060CD43B781BB962
:10407000F4E72B78002BF1D062B601F09BFB72B60F
:1040800023681806F5D5254B1B6800222A7062B6F6
:10409000234A107843FA00F0BDE8F0810020704711
:1040A0000020BDE8F081FFF7B5FE3206D2D572B62A
:1040B0001C4DDFF87C801C4C06F04007FFB206F078
:1040C0003F06D8F80030DFB123F01003C8F8003005
:1040D00001232660134A2B7062B672B62368190654
:1040E0000CD413781BB9ECE72B78002BE9D062B61F
:1040F00001F060FB72B623681B06F5D50B4BC3E7D6
:1041000043F01003C8F80030E2E700BF64900000FD
:10411000EA12FF1FEC12FF1F00B0034010B0034073
:10412000E912FF1FEB12FF1F00B00B4010B00B4055
:104130000CB00B4008B5104C08E0236859050DD4AD
:1041400023681A050FD42368DB0411D423685803AD
:10415000F3D500F0D9FA23685905F1D500F00EF82F
:1041600023681A05EFD500F009F82368DB04EDD5C4
:1041700000F004F8EAE700BF3480044008B5FFF718
:10418000D9FF00BF014B10221A8070470020054064
:10419000704700BF094908B50B6830B16A4618443A
:1041A000A2F50052904202D20860184608BD03F002
:1041B000A9FC0C2303604FF0FF3008BD7C08FF1FF3
:1041C000084A1378802B01D0002070470649074B1E
:1041D00007480860002119701378802BFCD001205B
:1041E000704700BF03E007404480044001E00740FF
:1041F00000002822094A1378012B01D000207047C3
:1042000003F1804303F5FC23602119701378802BA0
:10421000FCD1034B034A1A600120704703E00740BA
:10422000448004400000060210B4114B53F83020C3
:1042300092F8804234B1012379B182F880305DF880
:10424000044B704703EBC0035B681A6851B922F056
:1042500002021A605DF8044B704782F800315DF885
:10426000044B704742F003021A605DF8044B70473C
:10427000AC9000001C4A02EBC00301295B6811D01E
:1042800004291BD052F83000002280F8802229B186
:10429000022920D0032922D01A6070474FF480727F
:1042A0001A60704752F830004FF4A27280F8801202
:1042B0001A601A6822F020021A60704752F8301013
:1042C0004FF4A272012081F880021A601A6842F04D
:1042D00020021A60704740F203121A6070474FF4D0
:1042E00081721A60704700BFAC90000030B4054B7B
:1042F000054D064C002210211A602A6020601960CA
:1043000030BC704714D0034004D0034000D00340B9
:104310003F2801D8FFF788BF704700BF3F2806D865
:10432000044B53F8303093F80002C0B270470020BD
:10433000704700BFAC9000003F2801D8FFF79ABF3C
:10434000704700BF2DE9F843054672B6224F234B54
:10435000234A1B683C68126862B6520102D5322BB0
:1043600088BF0134B5B3C3F52F3303F21F331D4E9D
:10437000DFF86890DFF868809B084FF47A72A6FB3C
:10438000031302FB04F404EB930472B6D9F8001093
:104390003A68D8F800E062B6C1F52F3303F21F3354
:1043A0009B08A6FB03031EF0806FC4EB93034FF43E
:1043B0007A7002D0322988BF013200FB0233B3F594
:1043C0007A7F04D3013D05D004F57A74DDE701F06E
:1043D000F1F9DAE7BDE8F883F012FF1F18E000E01A
:1043E00004ED00E0176CC116F8B54E4B4E48DFF8EF
:1043F0005CC14E4C4E49DFF858E14E4E4E4D4F4F8A
:104400004FF000621A604FF080521A604FF0005275
:104410001A604FF080421A604FF000421A6000228A
:10442000026028234EF6FF70CCF80000CEF8003072
:1044300023600EF5012E0B6033602B6006F500261D
:104440003B6005F50025A36207F500278B6204F5A4
:10445000012401F5012106F6E87605F6E87507F571
:104460007F6710310EF1100E203433602B60CEF8D0
:1044700000303B600B602360314CBB618B610921D4
:104480002160A7F5002704F58054203F08343A60E6
:104490002060BB60E36047F8041C04F5FD2407F5C9
:1044A000FE27043704F2FC7422603860A360FB60CE
:1044B00044F8041C083404F6FC74C7F8FC2F206090
:1044C000A4F5E124A4F2DC7433602B60C7F8F81F74
:1044D00021681C4841F40071216001681A4C0EF5F6
:1044E0007F4E0EF1E80E07F5883706F5803605F5A4
:1044F000803541F000710160CEF8002047F6FF7171
:104500000822396033602B602260FFF725FD1920F7
:10451000FFF718FF00F05EFE40F21310BDE8F84010
:10452000FFF710BF04E100E0048003401480034063
:104530001C800340248003402C80034034800340CF
:10454000008003400480044000900C400880034039
:104550000C800340431E032B14D872B60A4951F84D
:10456000230068B170B4094C058834F813204668FC
:1045700041F82360521B24F8132062B670BC7047C8
:1045800062B67047002070474C13FF1F5414FF1F82
:10459000013803280BD872B6074B53F8203043B1CB
:1045A00000205B680130002BFBD162B67047002011
:1045B00070471846F9E700BFA013FF1F30B472B66A
:1045C0002B4A13781D0706D52A4B196A002936D0C5
:1045D000996A002941D053781C0706D5254B196CE0
:1045E00000293ED0996C002939D09378190705D558
:1045F000204B196E002936D0996E89B1D3781B07EC
:1046000007D51C4BD3F880207AB3D3F8882011212A
:104610003AB162B6184B00221A7030BC00F062BE8C
:104620000D21154C154D227843F8315003EBC10391
:104630000830013A5860227062B630BC70470422DC
:104640000D4C0F4D217843F8325003EBC203083074
:104650004A1E5860227062B6EFE70521E1E70921A2
:10466000DFE70822ECE70C22EAE71022E8E700BFC8
:10467000D49200000000FF1FC913FF1FC8004000B4
:1046800088004000431E032B1DD81B4A400140F008
:10469000100030B4104472B6184CE25C032A1BD8E8
:1046A000DFE802F00212151703220D88E25410F021
:1046B000080F14BFC823882343EA05430831036069
:1046C000416062B630BC704708300222EDE7052237
:1046D000EBE708300422E8E7094A52F8230038B132
:1046E000084A52F82300416042F8231062B6E9E715
:1046F00042F82310034AF7E70000FF1FD813FF1FFB
:10470000A013FF1FB013FF1F2DE9F04FDFF818B300
:10471000DFF818A387B044E0AE4F4FEA930807EBE9
:10472000C809013ED9F8042003F00803F6B2A2F14B
:10473000080003F0FF04002B40F0048157F83830E4
:104740001B0C99B222F8081C002B00F0F280A24B3F
:1047500022F8064C42F8044C53F82620002A00F0B8
:104760006E819E4D55F8263058609D4C45F82600C8
:1047700034F81630194424F8161000F093FD002880
:1047800000F05681974A984B19F0080F00F1080085
:1047900018BF1346C9F8040047F8383008238BF8CF
:1047A00000309BF80040E4B261071BD58F4B1B78AB
:1047B000ABB18F490A7802F0FF032AB1013BDBB2AB
:1047C0000B70002B00F0EF848A490A7802F0FF0397
:1047D0002AB1013BDBB20B70002B00F0F780042301
:1047E0008BF8003004F0080303F0FF02002B00F008
:1047F000D6809AF80030DBB21E098DD19C08DFF814
:10480000D49159F8342009EBC401C2F38302013A70
:1048100049680C2A7ED8DFE802F081817D7D7D7DAC
:104820007D7D477D7D7D07000868734D4A68734F25
:10483000734E286081B240F281606A4B6A604FF02B
:10484000010E0022814249F834303A60C9F8102044
:10485000C9F8182086F800E05E4C00F2F480B1F54B
:10486000D06F80F07883B1F5817F00F0628300F231
:104870008782802900F0EC82822940F01E83A9887B
:1048800001F07F01042900F218835E485E4C890024
:104890000844227062700278930740F1798384F8AB
:1048A00000E04FF0020ED8E2544F3A6842B3574B43
:1048B000534E5749188834780D784028864645F07D
:1048C000020828BF4FF0400E002C84F00104347021
:1048D000CEEB00000CBF8824C82409EBC80680B2C8
:1048E00085F0010544EA0E447260188049F83840AA
:1048F00072440D7018B9BEF1400F18BF00223A6023
:104900003D4B1A88B2F5A06F04D100219A785970F6
:10491000404B1A70404A012313703FE7364A15880E
:1049200042F22100854200F0FF812E4A49F83420EE
:10493000F0E72C4A2C4B19F0080F18BF134647F824
:1049400038302BE700F0CEFC344A354952F8263097
:10495000002B00F0B68158688C5D42F8260003F108
:104960000802C9F80420032C05D8DFE804F0120F70
:10497000150204228A551A8819F0080F0CBF8823E3
:10498000C82343EA024347F8383007E702228A5532
:10499000F1E703228A55EEE705228A55EBE7E007A7
:1049A00000F11A82210600F14982A20706D51D4AAC
:1049B0001D4913780220DBB213700870E30602D59C
:1049C000194B10221A7007B0BDE8F08F00F0F6FD09
:1049D00005E700BF0000FF1F4C13FF1FF812FF1F69
:1049E0005414FF1FC800400088004000D413FF1F6C
:1049F0005D13FF1FDC13FF1FC013FF1FF412FF1F07
:104A00005C13FF1FC0200740CC13FF1F0813FF1FBC
:104A1000C813FF1F9820074094200740A013FF1FD2
:104A2000D813FF1F882007408020074090200740B0
:104A3000AB4A47F83800137801331370AEE643F8F9
:104A40002600A84D91E642F22100814200F0358116
:104A500000F2AF81B1F5086F00F01B82B1F5106F65
:104A600040F02B82226AA049A8780870120600F153
:104A70004583D9F828209D49130600F13A83D9F8D7
:104A800030209A49150600F12F83D9F8382097492C
:104A9000140600F12483D9F840209449100600F14F
:104AA0001983D9F848209149120600F10E83D9F8EC
:104AB00050208E49130600F10383D9F858208B4902
:104AC000150600F1F882D9F860208849140600F133
:104AD0002983D9F868208549100600F11E83D9F88A
:104AE00070208249120600F11383D9F878207F499B
:104AF000130600F10883D9F880207C49150600F1DF
:104B00001C83D9F888207949140600F11083D9F85C
:104B100090207649100600F1C882D9F89820734990
:104B2000120600F1BC827248724A734901907348C0
:104B30006C4D734C049700230596029580461746EA
:104B40000E461D460394386828B1446800F0CAFB3D
:104B50002046002CF9D100233B60029B30681A46A6
:104B6000002342F8253028B1446800F0BBFB204602
:104B7000002CF9D100223260019A98F800301146D9
:104B8000002241F8042B039A0191023B4FF00001EF
:104B900022F81510032B09D8DFE813F04B010400AD
:104BA0004B0104004FF0010388F800300135042D5B
:104BB00007F1040706F1040608F10108C3D1514CBE
:104BC000514B2278464D049F059E002129701A7092
:104BD000130700F14F8262784C49DFF810810A70A8
:104BE00010074FF00001C9F83010C9F8381000F173
:104BF0002B824749A2780A700021C9F85010C9F8E1
:104C000058101107DFF8E48000F1DC81E2784149B7
:104C1000364C0A7000211207C9F87010C9F87810D4
:104C200000F1B98133780193002183F00102C9F8C2
:104C30009010C9F8981000200290804684460446DF
:104C400035490D7845F0020E09EBCE030393019B25
:104C5000002B039B5C600CBF8824C82444EA080333
:104C600085F0010449F83E3032700C70DFF87CE0CA
:104C70002A4BDFF8A480002840F02681BCF1400FC9
:104C80001BD144F0020C09EBCC03029CDFF85CE082
:104C90005C60002A40F02E81020442F088029DF8F8
:104CA00004304EF83C20044433700D7023464028F5
:104CB00003D100201A4A3B6010801A4A0123137066
:104CC00028E68B5D032B00F22D8101A252F823F020
:104CD0009D4700009D470000274E00002D4E00001C
:104CE000C913FF1FF812FF1FD413FF1F0000FF1F7F
:104CF000B013FF1F4C13FF1FA013FF1FD813FF1F7C
:104D00005414FF1FD4920000C4200740C82007405D
:104D1000CC200740D0200740C813FF1F5C13FF1FA3
:104D20000813FF1F94200740928892B9B14A0D786A
:104D30004878157050708D78C8789570D07010686C
:104D40000D79157186284D7989795571917100F029
:104D5000A580A949A94E0A78307882F0010500287B
:104D600042F002020D700CBF8821C82149F83210B0
:104D700009EBC20280F00100002130705160D4E5DF
:104D800040F20232914240F08D80A98801F07F010B
:104D9000042900F292806A88002A40F08E809848A8
:104DA000CDF804E089000844017841F00201017067
:104DB00041E742F2212081427BD1A988002940F0BD
:104DC000E480904B904A9148AC781D681560CDF80E
:104DD00004E00A4604702EE78D4B8E4886491A611E
:104DE0004FF0020E80F800E0854F0A708A49196082
:104DF00099608A4E8A4D8B4C9A610D213970FF2142
:104E00003170DFF840E229702270874D874A8EF8B2
:104E100000109F27012406F8047C5D600470DA60AE
:104E200007B0BDE8F08F00238B55B7E401238B5505
:104E3000B4E44FF0000388F80030B7E67049784BCF
:104E400080220D2008701A70A2077FF5B7ADAEE57D
:104E5000774C4FF0020E22706270EA88724580F043
:104E6000A38165490D78402A944645F0020E28BF7B
:104E70004FF0400C04EB0C0309EBCE00029301232E
:104E800044604FEA0C48CCEB020001930022C82496
:104E9000E4E6684A664C12782270DEE7664A0F2123
:104EA000117056E7B1F5A06F07D1012300220193DD
:104EB000C1E642F221329142F7D0514A0F231370DA
:104EC000544A0123137025E540287FF6DAAE44F0FA
:104ED00002040EEBC401029E4E60BAB19DF80410AC
:104EE000564A19703346403888F8005040334EF81F
:104EF0003420DFE69DF8043033700204029B0D700D
:104F000042F0C80203444EF83C20D0E69DF804105D
:104F10001970029B404A88F80050403840334EF8E0
:104F20003420C7E619F0080F0CBF022303238B556A
:104F300034E4A98801F07F010429BED86A88002AD8
:104F4000BBD12F48CDF804E089000844017821F056
:104F5000020101706FE63A4A5468002CADD06888AF
:104F6000B5F804E003E00C325468002CA5D0138897
:104F70008342F8D153887345F5D1000A03280CBF4A
:104F800094F800E0B2F808E067E7CDF804E052E6F4
:104F90004FF0020E61E700F085F9002800F0F18083
:104FA00008301D4AC4F88400C4F8802000F07AF963
:104FB000002800F0E0800830204AC9F88C00C9F8C9
:104FC00088202FE600F06EF9002800F0E680083017
:104FD000114AC8F86400C8F8602000F063F900289E
:104FE00000F0D5800830154AC9F86C00C9F868206F
:104FF0000CE600BF5C14FF1FC813FF1F5C13FF1FEC
:10500000C0200740F012FF1F6414FF1FEC13FF1FA6
:105010000000FF1F942007408800400088200740C0
:1050200080200740982007400C13FF1F6013FF1FCC
:10503000CC13FF1FD413FF1F5D13FF1FC8004000D8
:10504000D89200008C20074000F02CF9002800F0D6
:105050008C8008305D4AC8F84400C8F8402000F051
:1050600021F900287BD00830594AC9F84C00C9F80A
:105070004820BEE500F016F900286AD00830534AEF
:10508000C9F82400C9F8202000F00CF900285AD0F3
:1050900008304F4AC9F82C00C9F828209BE5D1F800
:1050A0009C00083800F01EF93DE5D1F8940008385E
:1050B00000F018F931E5C86D083800F013F902E581
:1050C000486D083800F00EF9F7E4C86C083800F0B5
:1050D00009F9ECE4486C083800F004F9E1E4C86B25
:1050E000083800F0FFF8D6E4486B083800F0FAF80A
:1050F000CBE4C86A083800F0F5F8C0E4606A083804
:1051000000F0F0F8B5E4C86F083800F0EBF8F2E40E
:10511000486F083800F0E6F8E7E4C86E083800F099
:10512000E1F8DCE4486E083800F0DCF8D1E4D1F8AE
:105130008C00083800F0D6F8E9E4D1F8840008388B
:1051400000F0D0F8DDE42A78C9F8280001322A708E
:1051500041E52A78C9F8200001322A7094E72A78BC
:10516000C9F8480001322A7043E52A78C8F840009F
:1051700001322A7073E72A78C9F8880001322A7050
:1051800050E52A78C4F8800001322A700EE72A78A8
:10519000C9F8680001322A7038E52A78C8F860003A
:1051A00001322A7019E700BEBEF1400FF44628BF55
:1051B0004FF0400C04EB0C0302930123CCEB0E00E8
:1051C0004FEA0C48002201933AE500BF88004000F6
:1051D000C80040002DE9F041274C00F087FB002279
:1051E00004F1A00023461A605A60083383424FF04E
:1051F0000001F8D12148224A0368DFF89CE0214EE3
:10520000214D224FDFF894C0DFF8948043F48023CF
:105210000360136843F04073136003238EF800307B
:10522000A023337002F5C922C4F3072300F5283008
:105230002B708030C4F3074310323B70240EFF23E1
:105240000470134D8CF80030124888F80030137049
:10525000012306F8AC3C4FF400140EF8441C7026F1
:10526000102107F82C3C2E70046082F8F810AEF183
:10527000440EBDE8F08100BF0000FF1F34800440F1
:1052800000D80040402107409C200740B020074044
:1052900035E400E004E100E04421074080200740BD
:1052A0008820074072B60D480268B2FA82F30B2BD1
:1052B00010DC4FF00041D94022EA0102026062B6E0
:1052C000074803EBC303DB00C2180021C15010469E
:1052D0005160704762B60020704700BF8008FF1F12
:1052E000D003FF1F0D4B0E4AC31AA2FB03231B0959
:1052F0000B2B0CD80B4A127852B972B60A484FF0F1
:105300000041026821FA03F31A43026062B6704753
:10531000064A1278002AF0D0FFF750B9D003FF1FD9
:10532000398EE338C913FF1F8008FF1FD413FF1FF6
:1053300038B50F4D286878B143880288C118013309
:1053400093420C7A02D24380204638BDFFF7CAFF51
:10535000002320462B6038BD064B1B782BB1032061
:10536000FFF7F8F828600028E6D14FF0FF3038BD8D
:10537000E813FF1FD413FF1F10B5094C206818B1A4
:1053800043881844007A10BD064B1B782BB10320CC
:10539000FFF7E0F820600028F2D14FF0FF3010BD99
:1053A000E813FF1FD413FF1F044B054A1B689088A6
:1053B0001BB11A885B88D31A18447047E813FF1F83
:1053C0005414FF1F0B4B1B789BB110B50A4C20687F
:1053D00048B1FFF787FF002303202360FFF7BAF8E7
:1053E00030B1FFF77FFF0320FFF7B4F80028F8D1B2
:1053F00010BD7047D413FF1FE813FF1F2DE9F04FB6
:10540000DFF8F89083B0012289F80020019169B398
:10541000DFF8EC80354F019E8346D8F80000B0B32A
:10542000334D4488C4F14001B14228BF314604EBFA
:10543000010E00221FFA8EFE2A70761AA0F802E0F2
:1054400000F1080251B1013C224459441BF8014BC0
:1054500002F8014F8B45F9D1B0F802E0BEF13F0FE1
:105460000BD8244A05211170002ED6D101980023B3
:1054700089F8003003B0BDE8F08F40220280014679
:105480000420FFF7FFF80022C8F80020E9E73A7887
:1054900022B3194C164D4FF0010A07E0013C16D01B
:1054A0002A78A2B900F086F93A78BAB10420FFF759
:1054B0006FF80728F2D889F800A0FFF7F3FEC8F8C4
:1054C00000000028ADD10D4B013C1870E8D101233C
:1054D0004FF0FF302B7003B0BDE8F08F00234FF08A
:1054E000FF3089F8003003B0BDE8F08FD413FF1F00
:1054F000E413FF1FDC13FF1F21480100DD13FF1F12
:10550000E013FF1F00B583B002AB012103F8010DCA
:105510001846FFF773FF03B05DF804FB38B50E4D76
:105520000E4C28680123237028B140880023237083
:10553000C0F1400038BD0A4B1B7813B90020207021
:1055400038BD0420FFF724F80728F7D8FFF7AAFE94
:1055500028600028E9D1F1E7E013FF1FDD13FF1FEA
:10556000D413FF1FF8B5114B1B788BB1104E114DA2
:10557000346801272F7064B10F4A638800271770C1
:10558000214623800420FFF77DF8376000232B702D
:10559000F8BDFFF787FE084B28B1014604201C70B8
:1055A000FFF770F8F2E71F70F0E700BFD413FF1F9A
:1055B000E013FF1FDD13FF1FDC13FF1F38B50E4B79
:1055C0001B7873B90D4C216861B103F0FF054B885E
:1055D0000B800420FFF756F8256038BD084B0122E8
:1055E0001A7038BDFFF75EFE0028F7D00146BDE80F
:1055F00038400420FFF746B8DD13FF1FE013FF1FFC
:10560000DC13FF1F70B5EFF3108272B60C4C2068EC
:1056100080B10C4E00254369236073B19D6102B9CE
:1056200062B6457783689847EFF3108272B62068B8
:105630000028F0D102B962B670BD3360EFE700BF59
:10564000F013FF1FF413FF1FFFF7DCBF024A1368BC
:1056500001331360704700BFF012FF1F70B50E4D8D
:1056600082B02B680093009E044608E000F0A2F888
:105670002B680193019BA2689B1B934207D223686E
:1056800020465B6998470028F0DB02B070BD4FF000
:10569000FF3002B070BD00BFF012FF1FF8B50D461D
:1056A000A1B1164682B10746002404E00134A642A7
:1056B00005F8010B08D03846FFF7D0FF0028F5DACF
:1056C00001233B732046F8BD3046F8BD0846F8BDBF
:1056D00010B50446006802F04BFA204610BD00BF2A
:1056E00038B543688B4201D3012038BD0D460446CE
:1056F0000131006802F0B2FD0028F6D0A36884E80A
:105700002100002BF0D10370EEE700BFF8B504468E
:10571000154632B9036803B11A700023A36020460E
:10572000F8BD0E461146FFF7DBFF074648B9206873
:1057300010B102F01DFA276000236360A3602046C9
:10574000F8BDA5603146206803F008F9E7E700BF1F
:1057500038B500230446036043608360037341B19E
:1057600008460D4603F06CF9294602462046FFF72D
:10577000CDFF204638BD00BF08B5FAF791FEFCF713
:10578000A3FC00F017F8FAE702F0F2B9FFF71ABE2F
:10579000FFF7F2BDFFF7CCBDFFF706BEFFF7E2BE95
:1057A000FFF7BCBE08461146FFF728BE0846FFF7C4
:1057B000A9BE00BF2DE9F843314E337893B1314F84
:1057C0003A787AB90122D9073A7036D49A0719D4AF
:1057D00000225B073A7005D52B4B1A6812B1EFF324
:1057E00005820AB1BDE8F883EFF3108172B618683C
:1057F00018B1264C2278002A2ED00029F2D162B6A8
:10580000BDE8F883DFF8908098F80020002ADFD008
:10581000DFF88890002405E0013498F80030E4B205
:10582000A34212D959F824502B6828461B6998477F
:105830000028F1D02B699847EEE7FFF7B5FDC8B90E
:10584000134B1B781BB93378C0E73378C0E7337844
:1058500003F0FE033370B9E745691D60012323702F
:105860005DB1AA6101B962B60025457783689847A2
:105870002570B7E700F07CF8E2E7064B1D60F1E722
:105880009408FF1F0114FF1FFC13FF1F0014FF1FCC
:105890003A09FF1FF813FF1F1C14FF1F0414FF1FFA
:1058A000F0B44D1E2E46002400E00134B0FBF2F3AC
:1058B00002FB1300092800F130078ABF3730F8B225
:1058C000C0B206F8010F1846002BEED10A1953702A
:1058D0004CB1107815F8016F28700133E01A83423B
:1058E00002F80169F5DB0846F0BC704710B584B0DA
:1058F00072B6FEF765FC184A184B19491160702200
:1059000080211A701A46197013781B06FCD5154BA6
:105910001C68FEF76FFC62B6134B9C429CBF04EB05
:10592000840464002046114C01A90A22FFF7B8FF45
:1059300001A92046002311F8012B01333AB10A2BAB
:1059400020F8022FF7D11623237004B010BD5B009E
:10595000DBB2237004B010BD04000240000002401E
:10596000000007410C0002407F9698002409FF1FA9
:10597000704700BFFFFFFFFF00B551EC100B2C4A32
:1059800021F00043934285B020DD2A4A934209DD8D
:1059900010EE102A0B4601F0E9FB41EC100B05B0AC
:1059A0005DF804FB684600F07FF800F00300012872
:1059B00028D0022815D060B301209DED021B9DED7B
:1059C000000B00F0EDFF51EC100BE6E79FED161B0E
:1059D00000F092FA51EC100B41EC100B05B05DF8A1
:1059E00004FB9DED021B9DED000B00F085FA53ECCE
:1059F000102B10EE100A03F1004141EC100B05B022
:105A00005DF804FB9DED021B9DED000B00F0C8FF4F
:105A1000EDE79DED021B9DED000B00F06DFA51ECE2
:105A2000100BBAE7AFF30080000000000000000098
:105A3000FB21E93FFFFFEF7F00B551EC100B184A47
:105A400021F00043934285B01DDD164A934209DDE3
:105A500010EE102A0B4601F089FB41EC100B05B04B
:105A60005DF804FB684600F01FF8400000F00200FB
:105A7000C0F101009DED021B9DED000B01F05CF8F3
:105A800005B05DF804FB01209FED031B01F054F805
:105A900005B05DF804FB00BF00000000000000003E
:105AA000FB21E93FFFFFEF7F2DE9F04F53EC102B77
:105AB000974923F0004B8B458FB040F38780954981
:105AC0008B451C46824629DC002C194610EE100A34
:105AD00085A3D3E9002340F3A58101F047FB8E4B5A
